:020000040800F2
:10000000180700209D0100082F2E0008C9280008AD
:100010002D2E0008210A00080D40000800000000F5
:10002000000000000000000000000000B72F0008E2
:10003000D50A000800000000B52F0008B92F0008FD
:10004000B7010008B7010008B7010008B7010008B0
:10005000B7010008B7010008B7010008B7010008A0
:10006000B7010008B7010008B7010008B701000890
:10007000B7010008B7010008B7010008B701000880
:10008000B7010008B7010008B7010008B701000870
:10009000B7010008B7010008B7010008D70A000837
:1000A000B7010008813A0008B7010008B70100084D
:1000B000B7010008B7010008B7010008B701000840
:1000C000B7010008B7010008B7010008B701000830
:1000D000B701000801400008B7010008B701000897
:1000E000B7010008B7010008B7010008B701000810
:1000F000B7010008B7010008B7010008B701000800
:10010000B7010008B7010008B7010008B7010008EF
:10011000B7010008B7010008B7010008B7010008DF
:10012000250A0008B7010008B7010008B701000858
:10013000B7010008B7010008B7010008B7010008BF
:10014000B7010008B7010008B7010008B7010008AF
:10015000B7010008B7010008B7010008B70100089F
:10016000B7010008B7010008B7010008B70100088F
:10017000B7010008B7010008B7010008000000003F
:10018000B7010008B7010008DFF80CD000F05AFBF7
:1001900000480047395F00081807002006488047DC
:1001A00006480047FEE7FEE7FEE7FEE7FEE7FEE75C
:1001B000FEE7FEE7FEE7FEE7513000088901000890
:1001C0002DE9F05F0546002092469B46884606468C
:1001D000814640241BE0284641464746224600F01F
:1001E00032FA53465A46C01A914110D31146184666
:1001F000224600F019FA2D1A67EB01084F462246F5
:100200000120002100F010FA17EB00094E41201EDA
:10021000A4F10104DFDC484631462A464346BDE8E6
:10022000F09F40EA01039B0703D009E008C9121FB1
:1002300008C0042AFAD203E011F8013B00F8013BA0
:10024000521EF9D27047D2B201E000F8012B491ECC
:10025000FBD270470022F6E710B513460A46044663
:100260001946FFF7F0FF204610BD2DE9FE4F8046EE
:1002700081EA0300C00F0C46009021F0004123F0FA
:100280000045B8EB0200A94105D240462146904600
:100290001C460B46024623F00040104347D0270D72
:1002A000C7F30A00C3F30A510290401A0190402894
:1002B0006BDAC3F3130040F4801B0098924620B120
:1002C0000023D2EB030A63EB0B0B01985946C0F1F4
:1002D0004002504600F0A8F906460D4650465946E1
:1002E000019A00F0C0F910EB08006141002487EA90
:1002F000115284EAE7731A4340D0009A62B3019A1C
:10030000012A4FEA075215DC001B61EB02014FF096
:10031000004202EA0752CDE90042001C41F580117B
:1003200032462B4600F0C0F903B0BDE8F08F4046DE
:100330002146F9E7001B61EB0201001C41F5801327
:1003400000185B412018A2F5001747EB030140EAB3
:10035000D570B6196D4111E06D084FEA360645EAD1
:10036000C0754FEA0752001B61EB0201001C41F50A
:10037000801149084FEA30000019514132462B469E
:1003800003B0BDE8F04F00F080B9009801224000B2
:100390000023D0EB020263EBE073009821464FEAA2
:1003A000E074B8EB000061EB0401E9E783F000437F
:1003B0005BE781F0004158E72DE9FE4F81EA030435
:1003C00004F0004421F0004100944FF0000B23F0B2
:1003D000004350EA01045ED052EA03045BD0C3F349
:1003E0000A54C1F30A552C44A4F2F3340194A0FB3F
:1003F0000254C1F3130141F48011C3F3130343F416
:10040000801301FB024400FB034E840A970A44EA6E
:10041000815447EA8357A4FB076802958D0A05FBC0
:1004200007854FEA932C04FB0C542705029D4FEAE5
:10043000065847EA1637B5EB08056EEB070C870E32
:10044000920E47EA811742EA8312A7FB0201B6EB3C
:100450000B0164EB00042B0D43EA0C335E1844EBF4
:100460001C50DA465146E7FB0201C5F313044FEA7C
:100470000B3343EA14534FEA0432019C43EA060368
:10048000A4F10C040294009CCDE900B400F00CF936
:1004900003B0BDE8F08F00200146F9E72DE9F04DEB
:1004A00081EA030404F0004B21F0004514464FF0AC
:1004B000000A23F0004150EA050220D054EA01026C
:1004C0001DD0C5F30A570246C5F31303C1F3130049
:1004D000C1F30A5640F4801543F48013A7EB0608D5
:1004E000101BD64608F2FD3873EB050002D308F165
:1004F000010801E092185B41B8F1000F03DA002017
:100500000146BDE8F08D00204FF480110646844678
:100510000EE0171B73EB050705D3121B63EB0503F6
:1005200006434CEA010C49084FEA300092185B413F
:1005300050EA0107EDD152EA030012D082EA04002A
:1005400083EA0501084305D0101BAB4106D2012206
:10055000002306E000224FF0004302E06FF00102AA
:1005600053101AEB06004CEB085110EB0A0041EB5C
:100570000B01BDE8F04D00F088B80EB5C10F80EA60
:10058000E0700844CA07002140F233438DE80E00B2
:100590000A460B4600F088F803B000BD30B5041ED3
:1005A00071F1000404DB4FF00044404264EB0101B0
:1005B000141E73F1000405DB1C464FF00043524249
:1005C00063EB04038B4208BF824230BD30B5041E8A
:1005D00071F1000404DB4FF00044404264EB010180
:1005E000141E73F1000405DB1C464FF00043524219
:1005F00063EB0403994208BF904230BD30B50B460F
:10060000014600202022012409E021FA02F59D4242
:1006100005D303FA02F5491B04FA02F52844151E16
:10062000A2F10102F1DC30BD202A04DB203A00FAFD
:1006300002F1002070479140C2F1200320FA03F339
:10064000194390407047202A04DB203A21FA02F037
:100650000021704721FA02F3D040C2F120029140FC
:10066000084319467047202A06DBCB17203A41FA87
:1006700002F043EAE07306E041FA02F3D040C2F12F
:100680002002914008431946704710B5141E73F1BB
:10069000000408DA401C41F1000192185B411A4342
:1006A00001D120F0010010BD2DE9F04D92469B468E
:1006B00011B1B1FA81F202E0B0FA80F22032904634
:1006C000FFF7B2FF04460F4640EA0A0041EA0B0179
:1006D00053465A46084313D0114653EA010019D035
:1006E000C8F140025046FFF7AEFF05460E465046A1
:1006F00059464246FFF798FF084305D0012004E021
:1007000020463946BDE8F08D0020054346EAE076F4
:100710002C4337430A986305E40AA0EB0800002243
:10072000FD0A44EA47540A3002D500200146E9E7B1
:10073000010510196941DDE9084500196941BDE865
:10074000F04DA2E770B521F0004303430CD0C1F394
:100750000A550024D5EB040564EB0403D617AD1A43
:10076000B34102DB0020014670BD201841EB02516D
:1007700070BD2DE9F04D00231A461B1A8A4103DB98
:1007800000200146BDE8F08DC1F30A52C1F3130108
:1007900041F480154FF0000BD10702D100186D41D4
:1007A000521E0027044640F2FF11384601EB620A50
:1007B0003E468046024600204FF48011FFF743FF7B
:1007C000C2197141BB1846EB0100B4EB030C75EB89
:1007D000000C04D3E41A65EB000517460E462419F5
:1007E00008F101006D4180463428E3DDF91946EB3C
:1007F0000600091BA84103D24FF0FF32134601E067
:10080000002213461BEB070046EB0A51BDE8F04DF2
:10081000FFF73BBFC1F30A52C1F3130140F2FF33AC
:1008200041F480119A4202DA00200146704740F2FA
:1008300033439A42A2F2334202DC5242FFF703BF33
:10084000FFF7F2BE064C074D06E0E06840F00103FA
:1008500094E8070098471034AC42F6D3FFF798FCB1
:10086000686B0008886B000810B50146806B026C4D
:1008700012F0500F05D0026CD20626D500F0DAF93E
:1008800010BD016C41F40071016401688A6812F0C6
:10089000405F17D1027EAAB9CA6A12F4700F02D063
:1008A0008A6852050ED44A6822F020024A60016C20
:1008B00021F480710164016CC90403D4016C41F01E
:1008C0000101016400F0B4F910BD806BC26CBDE899
:1008D00010400846104710B5806B40210164416C00
:1008E00041F00401416400F0A5F910BD10B5806B22
:1008F00000F09FF910BD0000464910B54A6822F487
:1009000040324A604A6843681A434A6001684A684C
:1009100022F480724A6001684A68036942EA03224D
:100920004A6001684A6822F040724A6001684A6879
:1009300083681A434A6001688A6822F400628A6008
:1009400001688A68C3681A438A60816A6FF07062BE
:10095000D14201688A6822F070628A6001688A6800
:100960000CD0836A1A438A6001688A6822F0405278
:100970008A6001688A68C36A1A4301E022F0405223
:100980008A6001688A6822F002028A6001688A68C7
:10099000037E42EA43028A6090F820100029016831
:1009A0004A680FD042F400624A6001684A6822F443
:1009B00060424A6001684A68174C436A04EB43335B
:1009C0001A4301E022F400624A600168CA6A22F414
:1009D0007002CA620168CA6A838B104C04EB03532D
:1009E0001A43CA6201688A6822F400728A60016848
:1009F0008A6890F8303042EA43228A6001688A6847
:100A000022F480628A6001688A68406942EA802034
:100A1000886010BD0023014000E0FFFF0000F0FFF0
:100A2000FEE70000014800F083BA000090010020BA
:100A300001681823CAB2103AB2FBF3F2054B6FF308
:100A40000901032A9B5CC36500D9091D816508461D
:100A500070470000CA69000810B5014600208B6984
:100A60008A6A4FF0C07453B1B3F5005F15D072B10C
:100A7000012A0CD0022A0AD0032A09D104E01AB1B3
:100A8000012A06D0022A03D1C96AC90100D5012072
:100A900010BDC96AA142FAD010BD002AF7D0012AC0
:100AA000F2D0022AF3D0032AF3D010BD30B5046887
:100AB000256825F480252560046863608368402BE1
:100AC000036803D099600068C26030BD9A60006816
:100AD000C16030BD70474FF4007000F0AFBB72B61C
:100AE000FEE7000078B50024009490F83C20012A2D
:100AF00019D0012280F83C200A6807250368092ADA
:100B000013D9DE680A3A02EB42029540AE43DE603A
:100B10000A788B680A3A02EB420293400268D56871
:100B20002B43D36010E0022078BD1E6902EB420225
:100B30009540AE431E610A788B6802EB42029340F7
:100B4000026815692B4313614A681F25072A13D2CF
:100B500003685E6B521E02EB82029540AE435E63F9
:100B60000A8893B20A79521E02EB8202934002680D
:100B7000556B2B43536327E003680D2A12D21E6B7B
:100B8000D21F02EB82029540AE431E630A8893B2E5
:100B90000A79D21F02EB820293400268156B2B4345
:100BA000136311E0DE6A0D3A02EB82029540AE4318
:100BB000DE620A8893B20A790D3A02EB8202934010
:100BC0000268D56A2B43D362164B0568144A9D42CE
:100BD00006D10D68122D03D1556845F48005556086
:100BE00005689D4218D10B68102B01D0112B13D131
:100BF000536843F400035360096810290CD10A4973
:100C00000A4A0968B1FBF2F101EB8101490000E0F9
:100C1000491E00910029FBD180F83C40002078BD9E
:100C200000230140002001403400002040420F001A
:100C300070477047704770B504004FF0000603D04E
:100C4000206C002510B107E0012070BD204600F0A7
:100C50001DF8656484F83C50206CC00610D4206CEC
:100C600020F4885040F0020020642046FFF744FE44
:100C70006564206C20F0020040F00100206400E078
:100C8000012684F83C50304670BD000070B586B037
:100C9000064614216846FFF7DDFA1D493068884290
:100CA00034D11C480025016841F48071016000685E
:100CB00000F48070059017481438016841F0010174
:100CC00001600068694600F0010005901E20009058
:100CD0000320CDE90105104800F0BCFA104C0F4884
:100CE000C4E900050015A560C4E9035080006061F7
:100CF0008000A0618011C4E907052046656200F00C
:100D0000E7F908B1FFF7EBFEB463A66306B070BD68
:100D100000200140443802400000024010640240BC
:100D200090010020F8B500230446009390F83C00A1
:100D3000012807D0012084F83C0020688568ED0771
:100D400002D011E00220F8BD856845F001058560FC
:100D50004048414D0068B0FBF5F000EB400000E07A
:100D6000401E00900028FBD120688568ED0503D562
:100D7000856825F48075856020688568ED075FD0FB
:100D8000256C40F20166B54345F4807525644068E2
:100D9000400505D5206C20F4005040F480502064BC
:100DA000206CC00404D5606C20F00600606400E094
:100DB000636484F83C30A36B2948284DD863A36B47
:100DC00028481864A36B2848D86423686FF0220071
:100DD00018602068436843F080634360206883683C
:100DE00043F480738360134620680A46A66B00F1C3
:100DF0004C01304600F0D6F968681C49C0062068EE
:100E000006D0884224D1816811F0405F13D01FE0E2
:100E10008842F8D0164A904203D1D1F80423D20672
:100E2000F1D0144A904213D1D1F8041301F01F01FC
:100E30001029E8D30CE0816841F08041816007E02F
:100E4000206C40F010002064606C40F00100606491
:100E50000020F8BD3400002040420F000023014074
:100E600069080008ED080008D708000800200140C4
:100E700000210140002201402DE9F0410446876D28
:100E800000F0D6FA054694F835000026022806D070
:100E90008020606584F834600120BDE8F08120681E
:100EA000016821F0160101602068416921F080018C
:100EB0004161206C08B9A06C20B12068016821F064
:100EC000080101602068016821F0010101600CE067
:100ED00000F0AEFA401B052807D9202060650320EA
:100EE00084F8350084F83460D7E720680068C007CC
:100EF000EED194F85C103F208840B860012084F85F
:100F0000350084F834600020C7E790F835100229D6
:100F100003D08021416501207047052180F83510FC
:100F20000068016821F001010160002070470000A5
:100F30002DE9F84304464FF00009CDF800906348CE
:100F40004FF41651A56D0068B0FBF1F72E6894F8C8
:100F50005C20082101FA02F030420FD020680268BC
:100F600052070BD5026822F00402026094F85C007C
:100F70008140A960606D40F00100606594F85C10EC
:100F80004FF0010808FA01F0304208D021684969A1
:100F9000090604D5A860606D40F00200606594F811
:100FA0005C1004208840304208D021680968890715
:100FB00004D5A860606D40F00400606594F85C1092
:100FC00010208840304218D021680968090714D5DC
:100FD000A86020680168490304D50068000308D5AB
:100FE000A16C07E00168C90503D4016821F008017C
:100FF0000160216C09B12046884794F85C102020DC
:101000008840304231D021680968C9062DD5A860D2
:1010100094F8350005282068016806D0490347D5B3
:10102000006800031DD4616C1CE021F01601016012
:101030002068416921F080014161206C08B9A06CF1
:1010400020B12068016821F00801016094F85C106B
:101050003F208840A86084F8358084F83490216D62
:101060001FE0E16B09B120468847606D00282BD056
:10107000606DC00714D0052084F835002068016831
:1010800021F0010101600098401C0090B84203D893
:1010900020680068C007F6D184F8358084F8349061
:1010A000E16C002910D001B02046BDE8F0430847AC
:1010B0000168C905D5D4016821F01001016084F8E8
:1010C000358084F83490CCE7BDE8F8833400002004
:1010D0002DE9F041044600F0ABF905465CB1022071
:1010E00084F83500002684F834602068016821F017
:1010F000010101600DE00120BDE8F08100F098F9E8
:10110000401B052805D920206065032084F83500A0
:10111000F2E720680068C007F0D121680A6820481B
:101120000240D4E901031843D4E903352B431843A3
:1011300063691843A3691843E3691843236A184392
:101140001043626A042A03D1D4E90B231A431043E3
:10115000086020684069656A20F0070128460D4351
:10116000012704280CD1A06A0543E06A40B120465B
:10117000FFF772FC20B14020606584F83570BAE753
:10118000206845612046FFF753FC94F85C203F211E
:1011900091408160666584F835700020ACE70000FE
:1011A0003F8010F02DE9F0410446866D90F8340040
:1011B000002501280DD0012084F8340094F8357002
:1011C0000020012F07D084F8340002252846BDE80E
:1011D000F0810220FBE7022784F835706065204625
:1011E000FFF764FC94F85C103F208840B0602068F2
:1011F000016841F016010160206C20B1206801688F
:1012000041F0080101602068016841F001010160BE
:10121000DCE7000070B5044600F00AF90546601CE2
:1012200002D004480078044400F002F9401BA042B8
:10123000FAD370BD2800002070470000044910B5A3
:101240000A68024202D00860FFF7F6FF10BD0000F6
:10125000143C01402DE9F84FDFF89C910022A9F1E0
:10126000040B03274FF00F0C09F1040AABF1040E35
:1012700001250B6895402B40AB426ED10C7904F0F0
:101280000304012C01D0022C15D18668540007FA02
:1012900004F826EA0806D1F80C8008FA04F848EAAF
:1012A0000608C0F808804468AC430D79C5F3001502
:1012B0009540254345600C79E443A40708D0C568F0
:1012C000540007FA04F6B5438E68A6402E43C66064
:1012D0000C7904F00304022C11D1D40800EB84062D
:1012E000356A5407E40E0CFA04F825EA0805D1F82B
:1012F000108008FA04F848EA0508C6F82080056856
:10130000540007FA04F6B5430E7906F00306A6402A
:101310002E4306604C6814F4403F66D0374C256875
:1013200045F480452560246822F0030504F48044D8
:101330000094334C05EB0408D8F808589407260F9E
:101340000CFA06F4A5432F4CA04201D1002424E05E
:101350002D4CA04202D101241FE046E02B4CA042BC
:1013600001D1022419E02A4CA04201D1032414E047
:10137000284CA04201D104240FE0274CA04201D107
:1013800005240AE0254CA04201D1062405E0244CA6
:10139000A04201D1072400E00824B4402C43C8F83F
:1013A0000848D9F800404D464E689C43F60200D5E7
:1013B0001C432C60DAF8004055464E689C43B60248
:1013C00000D51C432C60DBF800405D464E689C4312
:1013D000B60300D51C432C60DEF8004075464E680D
:1013E0009C43F60300D51C432C60521C102AFFF4CA
:1013F0003FAFBDE8F88F0000083C01404438024090
:101400000030014000000240000402400008024099
:10141000000C02400010024000140240001802407C
:10142000001C02400AB1816170470904FBE700001B
:1014300001488068704700002800002070B5040053
:1014400025D094F83D00002520B984F83C50204672
:1014500000F050F9242084F83D002068016821F054
:10146000010101602068016841F4004101602068C9
:10147000016821F40041016000F0A4FA4D4B61685D
:10148000994201D84C4900E04C49884201D20120E0
:1014900070BD4B492268B0FBF1F1566826F03F065B
:1014A0000E43566062689A4206D94FF496725143D1
:1014B0004FF47A72B1FBF2F12268491C166A26F0E9
:1014C0003F06314311626168994210D84900401EBD
:1014D000B0FBF1F2521CC2F30B02042A01D2042029
:1014E00022E0B0FBF1F0401CC0F30B001CE0A2684E
:1014F000F2B301EBC10303EB0116431EB3FBF6F39A
:101500005B1C43F480431B0549D092B301EBC1023D
:1015100002EB0111401EB0FBF1F0401CC0F30B00C8
:1015200040F4804040F400402168CA694CF6FF73E3
:101530009A431043C861D4E9071001432068026848
:1015400022F0C00211430160D4E903010143206885
:10155000826848F2FF339A4311438160D4E9051051
:1015600001432068C26822F0FF021143C16001E01C
:101570000EE016E02068016841F001010160256479
:10158000202084F83D00256384F83E50002070BD83
:1015900001EB4106431EB3FBF6F35B1CB3E70120EE
:1015A000C2E701EB4101401EB0FBF1F0401CC0F36B
:1015B0000B00B7E7A086010080841E0000093D00F3
:1015C00040420F002DE9FF4F83B09A46DDE91197A5
:1015D00093460446DDF84080FFF72AFF054694F85D
:1015E0003D0020287FD11923012240492046009543
:1015F00001F0FCF9002876D194F83C00012872D063
:10160000012084F83C0020680168C90703D1016803
:1016100041F0010101602068016821F4006101606E
:10162000212084F83D00402084F83E0000262664F6
:10163000C4F82480A4F82A90608D20852C48E062AC
:10164000CDE9007553465A462046049901F054F9F5
:1016500070B930E02A463946204601F047FA58B1C1
:10166000206C042804D12068016841F400710160F5
:10167000012007B0BDE8F08F606A2168007808613A
:10168000626A521C6262208D401E80B22085618D8C
:10169000491E618521684B69DB435B070BD468B148
:1016A00010780861606A401C6062208D401E2085B1
:1016B000608D401E6085208D0028CBD12A4639469A
:1016C000204601F06DF90028CAD154F83D0B01689D
:1016D00041F400710160202004F81E09E677667766
:1016E0000020C6E7FFE70220C3E700000200100069
:1016F0000000FFFF10B586B0044614216846FEF7CF
:10170000A9FD13492068884220D11248016841F0A0
:10171000020101600068694600F002000590C020E7
:1017200000901220019001200290032003900420D9
:1017300004900948FFF78EFD06481030016841F417
:1017400000110160006800F40010059006B010BDA3
:1017500000540040303802400004024002488168D2
:101760000278114481607047280000200B4810B5B2
:10177000016841F400710160016841F48061016019
:10178000016841F480710160032000F06FF80F20C0
:1017900000F006F800F024F8002010BD003C0240E4
:1017A00070B50D4D04464FF47A712878B1FBF0F016
:1017B0000A490968B1FBF0F000F002FB48B9102CAF
:1017C00007D200222146501E00F030F800206C6045
:1017D00070BD012070BD00002800002034000020F2
:1017E0000A4808B5016841F480410160006800F4CE
:1017F000804000900548001F016841F08051016061
:10180000006800F08050009008BD0000443802409D
:10181000002809DB00F01F020121914040098000EF
:1018200000F1E020C0F8001170470000F0B40E4B4A
:101830001B68C3F30223C3F10704042C00D904245A
:101840001D1D072D01D2002300E0DB1E012606FA34
:1018500004F56D1E0D409D409E40761E164045EAE3
:101860000601F0BC02F068BC0CED00E0064A00F096
:10187000070110684FF6FF03184040EA01200349B2
:1018800008431060704700000CED00E00000FA050E
:101890002DE9F0470D46040065D0DFF81491D9F822
:1018A0000000EFB200F00700A84207D289F80070EC
:1018B000D9F8000000F00700A84254D120683D4E3E
:1018C000810712D5400703D5306840F4E0503060FE
:1018D0002078000703D5306840F4604030603068FD
:1018E000A16820F0F000084330602078C0072DD0B8
:1018F000304960680839012812D0022813D0032823
:1019000011D00968890700292DDA316821F0030117
:1019100001433160FFF78CFD804641F2883A0EE0CA
:1019200009688903EFE709688901ECE7FFF780FDA3
:10193000A0EB0801514502D90320BDE8F0873068CB
:10194000616800F00C00B0EB810FEFD1D9F8001006
:10195000484601F00701A94207D90770006800F066
:101960000700A84201D00120E7E72078400705D50D
:101970003068E16820F4E0500843306020780007C8
:1019800006D53068216920F4604040EAC10030602B
:1019900000F038F83168084AC1F30311515CC840BF
:1019A0000649086006480068FFF7FAFE0020C4E711
:1019B000003C024008380240D26900083400002090
:1019C0002C0000200448054900680968044AC1F356
:1019D0008221515CC8407047340000200838024022
:1019E000E26900080448054900680968044AC1F32F
:1019F0004231515CC8407047340000200838024032
:101A0000E2690008154810B5006810F00C01144890
:101A100013D0144B04290FD008290ED10F4C241FCA
:101A2000216801F03F022168490207D52068C0F310
:101A30008810A0FB030106E0184610BD2168C1F321
:101A40008811A1FB00010023FEF7BAFB2168C1F356
:101A50000141491C4900B0FBF1F010BD08380240BB
:101A60000024F40040787D012DE9F84F040075D082
:101A70002078DFF838A3C007AAF1040548D00AF19E
:101A800004000168C1F38101012908D00068C0F396
:101A9000810002280AD1DAF80000400206D5286841
:101AA000800335D560680028E1D031E06068B0F58A
:101AB000803F10D0B0F5A02F286810D020F48030DF
:101AC0002860286820F4802028606068A0B1FFF7B3
:101AD000AFFC06460CE0286840F48030F4E740F4A0
:101AE00080202860F7E7FFF7A3FC801B642871D8EB
:101AF00028688003F7D50BE0FFF79AFC064604E060
:101B0000FFF796FC801B6428F1D828688003F7D47F
:101B10002078DFF89C9280074FF0000B3DD5A3485A
:101B2000001D016811F00C0F08D00068C0F381009F
:101B300002280AD1DAF80000400206D4286880079B
:101B400015D5E068012809D111E0E068B8B101209D
:101B5000C9F80000FFF76CFC064605E022E1FFF73C
:101B600067FC801B0228C2D828688007F7D5286840
:101B7000216920F0F80040EAC10028600DE0C9F8B2
:101B800000B0FFF755FC064604E0FFF751FC801B50
:101B900002281FD828688007F7D42078000722D5AC
:101BA000824F84486169703771B101210160FFF78C
:101BB0003FFC064604E0FFF73BFC801B022809D8E7
:101BC00038688007F7D50EE0C0F800B0FFF730FCAA
:101BD000064605E082E0FFF72BFC801B02287DD83B
:101BE00038688007F7D42078400765D56F484FF0F4
:101BF00000083C300068C0000BD46C483C300168E1
:101C000041F08051016000684FF0010800F0805001
:101C10000090694F3868C0050FD4386840F4807070
:101C20003860FFF705FC064604E0FFF701FC801B67
:101C3000022853D83868C005F7D55C4FA0686C37C8
:101C400001280FD00528386810D020F00100386036
:101C5000386820F004003860A068B0B1FFF7E8FBF6
:101C600006460EE0386840F00100F4E740F004005A
:101C70003860F7E7FFF7DCFB811B41F288308142D7
:101C800063D838688007F5D50DE0FFF7D1FB06462D
:101C900006E0FFF7CDFB811B41F28830814254D82A
:101CA00038688007F5D4B8F1000F05D03F483C30C4
:101CB000016821F080510160A069B8B33B49091D5A
:101CC0000968C1F38101022946D00228584606D08E
:101CD000C9F86000FFF7ACFB044639E035E04F4639
:101CE000C9F86000FFF7A4FB064604E0FFF7A0FB7D
:101CF000801B022829D828688001F7D4D4E907017D
:101D00000843A16A2D4A490802EB0141626A41EA8F
:101D10008211084394F82C1040EA0161CAF80010BF
:101D200001203866FFF784FB044605E03CE0FFF73E
:101D30007FFB001B022808D828688001F7D533E014
:101D4000FFF776FB001B022802D90320BDE8F88FBD
:101D500028688001F4D427E00128F7D0DAF80000E1
:101D6000E26900F4800191421CD1226A00F03F0137
:101D7000914217D147F6C071626A0140B1EB821FF0
:101D800010D1A26A4FF0FF3300F4403103EB52024E
:101D9000B1EB024F06D194F82C1000F07060B0EB5C
:101DA000016F01D00120D1E70020CFE704380240C5
:101DB00000004742800E4742007000400000FFFFD5
:101DC00010B5401EB0F1807F01D3012010BD4FF04F
:101DD000E02460610F21601702F0AEF90020A061DD
:101DE00007202061002010BD7047704770B590F843
:101DF0003C20012A32D0012580F83C50022280F894
:101E00003D2002685368946823F070060B683343E2
:101E10005360134B02689A4214D0B2F1804F11D034
:101E2000104B9A420ED0104B9A420BD00F4B9A4255
:101E300008D00F4B9A4205D00E4B9A4202D00E4B5F
:101E40009A4204D1496824F080031943916080F8D4
:101E50003D50002180F83C10084670BD022070BD46
:101E6000000001400004004000080040000C004059
:101E700000040140004001400018004010B504007B
:101E800003D094F83D0010B107E0012010BD002000
:101E900084F83C00204600F01FF8022084F83D0042
:101EA000211D206801F0F2FD012084F8460084F82D
:101EB0003E0084F83F0084F8400084F8410084F834
:101EC000420084F8430084F8440084F8450084F814
:101ED0003D00002010BD000008B500680B49884295
:101EE00012D10B48016841F0010101600068002235
:101EF00000F00100009011461920FFF797FCBDE8A3
:101F000008401920FFF784BC08BD00000000014014
:101F10004438024090F83D10012901D0012070475B
:101F2000022180F83D100168CA6842F00102CA60CF
:101F300000681149884214D0B0F1804F11D00F4988
:101F400088420ED00E4988420BD00E49884208D0F4
:101F50000D49884205D00D49884202D00C4988427B
:101F600004D1816801F00701062903D0016841F01E
:101F700001010160002070470000014000040040A2
:101F800000080040000C00400004014000400140F7
:101F90000018004070B5044690F83C000025012868
:101FA00017D0012684F83C60022084F83D002068A8
:101FB000826822F0770222F47F428260086850280B
:101FC00038D00DDC20284FD005DC90B3102811D17B
:101FD0004AE0022070BD302846D040280AD13BE0BC
:101FE00060282FD070280DD0B0F5805F03D0B0F5F9
:101FF000005F12D0012584F83D60002084F83C0089
:10200000284670BDCB68D1E90121206801F0AFFD01
:102010002068816841F0770109E0CB68D1E90121AE
:10202000206801F0A4FD2068816841F4804181604E
:10203000E1E719E0CA684968206801F06DFE5021A7
:10204000206806E0CA684968206801F076FE6021D1
:10205000206801F096FDCEE7CA684968206801F063
:102060005BFE40212068F4E7226801461046F0E755
:10207000704770B50446006801694FF00005C94318
:10208000890715D4C168C943890711D4E91E0161C4
:1020900001202077206880698007204602D0FFF762
:1020A000E7FF04E000F0C0F8204600F063F9257770
:1020B00020680169C943490717D4C168C943490762
:1020C00013D46FF004010161022020772068806939
:1020D00010F4407F204602D0FFF7CAFF04E000F072
:1020E000A3F8204600F046F9257720680169C94326
:1020F000090716D4C168C943090712D46FF0080153
:102100000161042020772068C0698007204602D042
:10211000FFF7AEFF04E000F087F8204600F02AF950
:10212000257720680169C943C90617D4C168C94326
:10213000C90613D46FF010010161082020772068D0
:10214000C06910F4407F204602D0FFF791FF04E001
:1021500000F06AF8204600F00DF925772068016943
:10216000C943C90708D1C168C943C90704D1891E39
:102170000161204600F068F920680169C943090639
:1021800009D4C168C943090605D46FF08001016113
:102190002046FFF729FE20680169C943490609D492
:1021A000C168C943490605D46FF04001016120466A
:1021B00000F088F920680169C94389060BD4C16819
:1021C000C943890607D46FF0200101612046BDE8AC
:1021D0007040FFF70ABE70BD10B586B004461421EA
:1021E0006846FEF737F82068B0F1804F15D10C48EB
:1021F0000021026842F002020260006800F0020062
:102200000590082000900220CDE901010120CDE9D0
:10221000031069460348FFF71DF806B010BD000023
:102220003038024000040240704770B5044690F810
:102230003C0000260D4601280FD0012084F83C0008
:102240006AB1042A1DD0082A2FD00C2A3FD00126BB
:10225000002084F83C00304670BD022070BD20682C
:1022600001F098FC2068816941F0080181612068D3
:10227000816921F004018161206881692A69114323
:1022800011E0206801F0B6FC2068816941F400612A
:1022900081612068816921F48061816120688169A0
:1022A0002A6941EA02218161D2E7206801F0D8FC65
:1022B0002068C16941F00801C1612068C16921F04D
:1022C0000401C1612068C1692A69114311E02068D5
:1022D00001F0FAFC2068C16941F40061C161206825
:1022E000C16921F48061C1612068C1692A6941EA3C
:1022F0000221C161ACE710B5040003D094F83D00A1
:1023000010B107E0012010BD002084F83C002046F9
:1023100000F01EF8022084F83D00211D206801F025
:10232000B5FB012084F8460084F83E0084F83F00A5
:1023300084F8400084F8410084F8420084F84300A7
:1023400084F8440084F8450084F83D00002010BD66
:1023500008B50068B0F1804F08D10548016841F028
:1023600001010160006800F00100009008BD00005C
:10237000403802407047000010B5044649B10429B6
:102380000AD008290BD094F8410001280AD0012076
:1023900010BD94F83E00F8E794F83F00F5E794F894
:1023A0004000F2E70220B1B3042938D0082939D01F
:1023B00084F841000122206801F0CCFB1B49206811
:1023C0001B4A884201D0904203D1436C43F400433E
:1023D00043642068884213D0B0F1804F10D0154973
:1023E00088420DD0144988420AD01449884207D047
:1023F000904205D01249884202D01249884204D145
:10240000816801F00701062903D0016841F001014C
:102410000160002010BDFFE784F83E00CAE784F8A1
:102420003F00C7E784F84000C4E700000000014017
:10243000000401400004004000080040000C00407F
:102440000040014000180040F0B50068164988427D
:1024500029D1164E164940F6AC543568D1E900032F
:102460000122A54202D9134D2F7997B17568A54273
:1024700002D9114D2F7967B1B568A54202D90F4D28
:102480002F7937B1F568A54208D90D4C25791DB1D2
:1024900004E028602A7101E020602271401C43F1B1
:1024A0000002C1E90002F0BD000001403801002037
:1024B0002000002000000020080000201000002064
:1024C000180000207047704770470000F8B5016899
:1024D00004460868CA684B6910F00F0F4FF00005FA
:1024E00059D003F0010602F49077374365D0C10755
:1024F00005D0D10503D5216C41F0010121644107CC
:1025000005D5D90703D0216C41F002012164810770
:1025100005D5D90703D0216C41F0040121640107DE
:1025200007D502F02001314303D0216C41F00801AE
:102530002164216C00293AD0800604D5900602D58A
:10254000204601F03BFC20684069216CC0F38010FC
:10255000090700D460B3204601F009FC20684069F7
:10256000400621D52068143050E8001F21F04001BA
:1025700040E80012002AF5D1A06BA8B16C490165B2
:10258000A06BFEF7C2FC002811D0A06B016D01B05A
:10259000BDE8F040084783060FD593060DD52046C9
:1025A000BDE8F84001F00ABC2046FFF78DFFF8BDFA
:1025B0002046FFF789FF2564F8BD266B2023012EF6
:1025C00079D1C60677D5D60675D5086848680090D3
:1025D0004869400640D5A16B086840680004000CBB
:1025E000EAD0A28D8242E7D9E085C869B0F5807F44
:1025F0002DD020680C3050E8001F21F4807140E895
:102600000012002AF5D12068143050E8001F21F094
:10261000010140E80012002AF5D12068143050E88A
:10262000001F21F0400140E80012002AF5D184F893
:102630003E30256320680C3050E8001F21F0100167
:1026400040E80012002AF5D1A06BFEF715FCA08D22
:10265000E18D401A81B229E0A08DE18D401A81B24E
:10266000E08D0028A8D00029A6D020680C3050E8C2
:10267000002F22F4907240E80026002EF5D1206849
:10268000143050E8002F22F0010240E80026002E0E
:10269000F5D184F83E30256320680C3050E8002FD7
:1026A00022F0100240E80023002BF5D12046FFF76E
:1026B0000AFFF8BDFFE705062BD5150629D594F8C6
:1026C0003D002128F5D1A068B0F5805F01D12069D7
:1026D000B0B1206A411C2162216800784860E08C1A
:1026E000401E0004000CE084E3D12068C16821F0A2
:1026F0008001C1602068C16841F04001C160D8E735
:10270000206A0088C0F308004860206A801C2062AC
:10271000E5E74006CDD55006CBD5CA68204622F065
:102720004002CA6084F83D3000F0CDF8C1E70000F7
:102730005F3D000870B5040004D094F83D0000250A
:1027400010B106E0012070BD84F83C50204600F036
:1027500023F8242084F83D002068C16821F400514A
:10276000C160204601F08AFB2068016921F4904194
:1027700001612068416921F02A0141612068C16836
:1027800041F40051C1602564202084F83D0084F8A4
:102790003E00002070BD000010B586B00446142134
:1027A0006846FDF757FD18492068884229D1174827
:1027B0000021026842F010020260006800F0100080
:1027C000059012481438026842F001020260006865
:1027D00000F0010005904FF4C06000900220CDE9A8
:1027E0000101032003900720049069460848FEF782
:1027F00031FD002211462520FFF718F82520FFF7AC
:1028000007F806B010BD0000001001404438024037
:102810000000024070472DE9F843044690F83D005F
:102820001F4615460E4620284BD1C6B1BDB194F8BF
:102830003C00012845D0012084F83C004FF00008FE
:10284000C4F84080212084F83D00FEF7F1FDA58406
:102850008146E584A068B0F5805F03D004E00120E4
:10286000BDE8F883206920B13546002684F83C8015
:102870000EE00025FAE78021204601F085FBA0B993
:10288000ADB115F8010B21684860E08C401EE08472
:10289000E08C4B464FF0000200970028EBD14FF040
:1028A0004001204601F070FB30B10320D8E736F834
:1028B000020BC0F30800E6E7202084F83D0000206A
:1028C000CEE70220CCE77047FEE701684A69D243B1
:1028D00052050FD46FF480624A61002140F8301F26
:1028E000202242738173026942F004020261017383
:1028F00001207047002070472DE9F8430446006826
:102900000D46DDE9089701689846164641F4807146
:1029100001604B4600224FF001112046009700F065
:1029200065F848B120680068C00502D54FF4007012
:1029300020640320BDE8F883216805F0FE000861EB
:102940003B464A461549204600F084F888B920687D
:102950004169806900903A464946204600F0C6F831
:1029600048B1206C042804D12068016841F400714A
:1029700001600120DEE7F5B2B8F1010F09D021684E
:10298000300A08613A464946204600F0AFF8002870
:10299000E7D1206805610020CCE7000002000100BB
:1029A00070B516460D4604460DE02046FFF78DFF34
:1029B00008B1012070BD681C05D0FEF739FD801BF1
:1029C000A84207D835B120684069C0434007ECD41D
:1029D000002070BD002044F8300F20216173A073E7
:1029E000216941F0200121612073E2E72DE9F047E0
:1029F0001D4690460E460446C1F30747DDF8209079
:102A000008E0681C06D0FEF713FDA0EB0900A84201
:102A10000FD875B12068012F18D0806926EA000010
:102A20000004000C14D000204045EAD00020BDE88E
:102A3000F087002044F8300F20216173A0732169D2
:102A400041F02001216120730120F0E74069E5E7B2
:102A50000120E9E72DE9F047984615460E46044661
:102A60004FF000094FF0200AC1F3074723E0206828
:102A70004069C043400515D42068016841F40071E5
:102A8000016021686FF480604861C4F8309084F878
:102A90003DA084F83E90216C41F00401216484F84B
:102AA0003C901EE0681C06D0FEF7C2FCA0EB0800BC
:102AB000A8420AD84DB12068012F15D0806926EAB6
:102AC00000000004000C0DD0D1E744F8309F84F8DA
:102AD0000DA084F80E90216941F02001216184F855
:102AE0000C900120BDE8F0874069E8E770B5164614
:102AF0000D4604460DE02046FFF7E7FE08B1012031
:102B000070BD681C05D0FEF793FC801BA84207D857
:102B100035B120684069C0430006ECD4002070BD88
:102B2000002044F8300F20216173A073216941F027
:102B3000200121612073E2E7064900200860087146
:102B400008310860087108310860087108310860B0
:102B500008717047000000207FB5002124480091D3
:102B600001910291214A0391026001244FF4003245
:102B70000461C0E90121047680F820101D4AC0E9F3
:102B80000A210425C561C16080F830404461FEF728
:102B900052F808B1FDF7A3FF00940194022469469E
:102BA00013480294FDF79EFF08B1FDF798FF0094CB
:102BB00069460F480194FDF795FF08B1FDF78FFFB7
:102BC00003200090019069460948FDF78BFF08B18A
:102BD000FDF785FF0095694605480195FDF782FFE1
:102BE000002801D0FDF77BFF7FBD000000200140E1
:102BF000480100200100000F094808B5016841F4B0
:102C0000800101600068002200F4800000901146FD
:102C10003820FEF70BFEBDE808403820FEF7F8BD6F
:102C200030380240F0B587B014216846FDF712FB3A
:102C300027480024016841F020010160016801F08B
:102C400020010591016841F080010160016801F0F7
:102C500080010591016841F001010160016801F006
:102C600001010591016841F0020101600068194FFE
:102C700000F00200059000224FF40F713846FEF775
:102C8000D1FB3C200125CDE900050220CDE902045D
:102C900069463846FEF7DEFA6E020096CDE9015429
:102CA000694638460394FEF7D5FA4FF404100096AF
:102CB000CDE9010569460848FEF7CCFA00220E214D
:102CC0001720FEF7B3FD1720FEF7A2FD07B0F0BDF9
:102CD0003038024000140240000402400D4810B594
:102CE0000B4901600C49416000214FF48042816032
:102CF000C0E9031241618161C1610162FEF79EFB7F
:102D0000002803D0BDE81040FDF7E9BE10BD00006B
:102D100000540040F0010020A086010010B586B0EC
:102D200000241748009401940294039404941349D6
:102D300005940160A721C0E901140921C0E9031429
:102D40008021C0E90541FFF799F808B1FDF7C7FEFA
:102D50004FF48050009069460948FFF71BF908B10D
:102D6000FDF7BDFE049404A905480594FFF73EF85D
:102D7000002801D0FDF7B3FE06B010BD00000140F1
:102D80004402002010B58AB0002407941C21684634
:102D90000894FDF75FFA16484FF08041016040F259
:102DA000CF21C0E9011440F2CF71C0E9031484615E
:102DB000FFF7A1FA08B1FDF792FE079407A90C48A6
:102DC0000894FFF713F808B1FDF789FE6020CDE9FC
:102DD000000402940422694605480494FFF725FA8A
:102DE00008B1FDF77CFE0248FFF7F6F90AB010BD06
:102DF0008C0200200C4810B50A4901604FF4E13103
:102E00004160002181600C22C160C0E9041281612F
:102E1000C161FFF78FFC002803D0BDE81040FDF72B
:102E20005EBE10BD00100140D4020020FEE7FEE7A8
:102E300070B5002505F1B000C0B200F097F8002091
:102E400000F094F8102000F091F80024002000F029
:102E50009FF8641CE4B2802CF8D36D1CEDB2082DF1
:102E6000E8D370BD10B58D2000F080F8142000F07C
:102E70007DF8BDE81040AF2000F078B810B54FF4F1
:102E8000FA70FEF7C7F9BDE8104001F0C0B810B500
:102E90000446B031C8B200F069F8102040EA1410BE
:102EA00000F064F804F00F00BDE8104000F05EB8D8
:102EB0002DE9F041203A00240F468046D5B27F2804
:102EC00003D900208F1C8046FFB2102B39461DD835
:102ED000FFF7DDFF154E04EB0510305C00F058F8ED
:102EE000641CE4B2082CF6D37F1CF9B24046FFF70D
:102EF000CEFF002404EB05103044007A00F048F8BF
:102F0000641CE4B2082CF5D3BDE8F081FFF7BFFFE5
:102F1000074905EB450001EB4005285D00F038F856
:102F2000641CE4B2062CF8D3EEE70000DA63000874
:102F3000B26100082DE9F041984617460E46044656
:102F400000250DE0434631462046FFF7B1FF083427
:102F5000E4B2782C02D90024B61CF6B26D1CEDB296
:102F60007A5D002AEED1BDE8F081000001B584B0A1
:102F700001214FF4807204A88DE807000B4600225F
:102F800078210248FEF71EFB05B000BDF0010020CD
:102F900001B584B001214FF4807204A88DE80700C8
:102FA0000B46402278210248FEF70CFB05B000BD1D
:102FB000F001002070477047FEF7D0BB30B593B0EA
:102FC00030216846FDF746F914210CA8FDF742F9B7
:102FD0001D480025016841F080510160006800F043
:102FE000805011901948016841F4804101600068E7
:102FF000022400F4804011900120039010200490DE
:10300000009406940820CDE90750A820CDE90904D2
:1030100004200B906846FEF727FD08B172B6FEE764
:103020000CA90F2081E831004FF4A0500F904FF40D
:103030008050109005210CA8FEF72AFC002801D032
:1030400072B6FEE713B030BD403802400070004059
:103050000248016841F470010160704788ED00E0AA
:103060002DE9F04F2DED108B8DB004469FEDFE8BBA
:1030700080ED168B80ED1C8B9FEDFD1B80ED181BEA
:1030800080ED0C8B80ED1A1B80ED0E1BFA48016859
:10309000FA480568481BFDF770FA9FEDF99B53EC61
:1030A000192BFDF789F9C4E90401F7480068401BB2
:1030B000FDF763FA53EC192BFDF77EF99FEDF30B47
:1030C000C4E9060184ED0A0B84ED080B9FEDF11BAA
:1030D00084ED141B84ED120B9FEDF0FBB0EE480A5B
:1030E000F0EE680AB0EE4F1AF0EE6F1A01F058FBDE
:1030F000B0EE408AF0EE608A94ED160BB0EE4F1AF7
:10310000F0EE6F1A01F04CFB53EC182B51EC100B46
:10311000FDF7ABF8C4E9300194ED0C0BB0EE4F1A9B
:10312000F0EE6F1A01F03CFBB0EE408AF0EE608AE0
:1031300094ED180BB0EE4F1AF0EE6F1A01F030FB61
:10314000B0EE401AF0EE601A53EC182B51EC110B54
:10315000FDF78BF8C4E9320194ED0E0BB0EE4F1A77
:10316000F0EE6F1A01F01CFBB0EE408AF0EE608AC0
:1031700094ED1A0BB0EE4F1AF0EE6F1A01F010FB3F
:1031800053EC182B51EC100BFDF76FF841EC100BC2
:1031900084ED340B94ED308B53EC182BFDF706F9CE
:1031A000CDE9000194ED14BB53EC1B2BFDF704F9A2
:1031B00094ED320B41EC1E0B53EC182B51EC100B21
:1031C000FDF7F4F8CDE9020194ED128B53EC182BC6
:1031D000FDF7F2F894ED04AB41EC1D0B53EC1A2B08
:1031E00051EC180BFDF7E8F8804653EC1A2B0691CA
:1031F000FDF7E2F894ED069B41EC1C0B53EC192B08
:1032000051EC1B0BFDF7D8F8064653EC192B059132
:10321000FDF7D2F853EC1C2BFDF7C8F853EC1D2B2F
:10322000FDF723F853EC1E2BFDF7C0F894ED08CB07
:1032300041EC1D0B53EC1B2B51EC1C0BFDF7BCF8A8
:1032400008910491814694ED0ABB41EC1E0B4D465A
:1032500053EC182B51EC1B0BFDF7AEF883468A4656
:103260005F4653EC1E2B0791FDF7A0F853EC1F2B84
:10327000FDF7A2F841EC100B51EC1D0B53EC102B99
:10328000FDF70CF941EC100B84ED240B8DED0A0BCE
:1032900004994AEC107B41EC1E5B51EC100B53EC93
:1032A0001E2BFDF783F841EC180B069941EC118BAE
:1032B000059953EC112B41EC106B51EC100BFDF701
:1032C00075F853EC182BFDF7E9F841EC180B754E27
:1032D00084ED228B9FED74DBDDE9000153EC1B2BA9
:1032E000FDF76AF841EC1F0BDDE9020153EC1C2BE2
:1032F000FDF762F841EC1E0B53EC1A2B51EC1C0B42
:10330000FDF75AF88A464AEC100B054653EC1A2B87
:1033100051EC100BFDF750F841EC1A0B53EC192B44
:1033200051EC1B0BFDF748F8884648EC100B07469C
:1033300053EC192B51EC100BFDF73EF853EC1A2B04
:10334000FDF734F853EC1E2BFCF78FFF53EC1F2BCB
:10335000FDF72CF841EC190B079941EC11BB0899CA
:1033600053EC112B41EC109B51EC100BFDF71EF8A8
:103370009FED4AAB53EC1A2BFDF71EF841EC100BF6
:1033800051EC190B53EC102BFDF788F841EC1C0B9A
:1033900084ED28CB079941EC11BB089953EC112B14
:1033A00041EC109B51EC100BFDF700F84AEC115B5F
:1033B00048EC107B41EC190B53EC112B51EC100B2A
:1033C000FCF7F4FF53EC192BFDF768F841EC190BEF
:1033D00084ED269B53EC192BFCF7EEFF41EC1B0B05
:1033E00053EC182B51EC180BFCF7E6FF53EC1B2B9E
:1033F000FCF73BFF9FED2E1B53EC112BFCF7D6FF88
:1034000041EC1B0B53EC1C2B84ED36BB94ED1C0BD9
:1034100051EC100BFCF7CAFF894649EC100B05462E
:1034200053EC192B51EC100BFCF7C6FF94ED160B67
:103430009DED0A1B41EC190B53EC112B51EC100BB9
:10344000FCF7B4FF884648EC100B074653EC182BEA
:1034500051EC100BFCF7B0FF53EC192BFCF705FFF8
:103460009FED151B2CE0000000000000008056407E
:1034700000000000008056C008000020000000206E
:10348000C3F5285C8FC2D53F10000020000000006B
:10349000008066C000000000000000000000000086
:1034A00000000040001402406666666666A64C4056
:1034B000000000000000F03F00000000000000C01D
:1034C00053EC112BFCF778FF49EC105B41EC180B27
:1034D00053EC102B84ED388B51EC100BFCF76CFF88
:1034E00048EC107B41EC190B53EC102B51EC100BFA
:1034F000FCF762FF53EC192BFCF7B7FE41EC190BFC
:1035000084ED3A9B9FEDFECB51EC1B0B53EC1C2B37
:10351000FCF752FF53EC192BFCF74EFF41EC190B53
:1035200053EC182B51EC180BFCF746FF53EC192BFE
:10353000FCF73CFF1FED29BB53EC1B2BFDF746F8B6
:1035400071D294ED368B53EC1A2B51EC180BA83436
:10355000FCF732FF41EC190B53EC1C2B51EC180B10
:10356000FCF72AFF94ED101B53EC112BFCF724FF02
:1035700094ED0E0B41EC180B53EC102B51EC100B8F
:10358000FCF71AFF53EC182BFCF710FF41EC100B63
:1035900001F02EFF94ED0E8B51EC100B53EC182B19
:1035A000FCF704FF53EC192BFCF778FFC4E900018A
:1035B00094ED0C9B53EC1A2B51EC190BFCF7FCFE11
:1035C00041EC1A0B53EC1C2B51EC190BFCF7F4FEDD
:1035D00094ED101B53EC112BFCF7EEFE41EC190B94
:1035E00053EC182B51EC180BFCF7E6FE53EC192B9F
:1035F000FCF7DCFE41EC100B01F0FAFEB0EE408A65
:10360000F0EE608A94ED0E0B51EC100B81F000414E
:1036100053EC182BFCF7CAFE53EC1A2BFCF73EFFB9
:10362000C4E90201A83C53EC1B2B94ED2A0B51EC8E
:10363000100BFCF7CBFF0FD294ED2A0B01F0A4F88E
:103640009FEDB11B51EC100B53EC112BFCF7A6FFB7
:1036500002D294ED2A8B17E094ED2A0B53EC1B2B2E
:1036600051EC100BFCF79AFF2FD294ED2A0B01F0CE
:103670008BF89FEDA51B51EC100B53EC112BFCF7B5
:103680008DFF22D294ED2C8B94ED220B53EC182B52
:1036900051EC100BFCF790FE94ED241B53EC112B16
:1036A000FCF7E3FDC4E9000194ED260B53EC182B65
:1036B00051EC100BFCF780FE94ED281B53EC112B02
:1036C000FCF7D3FDC4E9020102E091A000F0F8FC90
:1036D00094ED000B53EC1B2B51EC100BFCF776FF19
:1036E00032D294ED020B53EC1B2B51EC100BFCF778
:1036F0006DFF29D2012220213046FDF793FE642080
:10370000FDF788FD002220213046FDF78BFE642066
:10371000FDF780FD94EC040B51EC100B53EC112BD6
:10372000FCF7BCFE41EC100B00F0C2FE53EC1D2B6D
:1037300051EC100BFCF740FE41EC100B76A084ED31
:103740003C0B53EC102BBEE094ED000B53EC1B2B09
:1037500051EC100BFCF722FF36D294ED020B53EC28
:103760001B2B51EC100BFCF731FF2DD20122102145
:103770003046FDF757FE6420FDF74CFD0022102176
:103780003046FDF74FFE6420FDF744FD94ED000B3D
:1037900051EC100B81F0004194ED021B53EC112B06
:1037A000FCF77CFE41EC100B00F082FE53EC1D2B6D
:1037B00051EC100BFCF700FE41EC100B5AA084ED0D
:1037C0003C0B53EC102B7EE094ED000B53EC1B2BC9
:1037D00051EC100BFCF7E2FE32D294ED020B53ECED
:1037E0001B2B51EC100BFCF7D9FE29D2012208212A
:1037F0003046FDF717FE6420FDF70CFD002208217E
:103800003046FDF70FFE6420FDF704FD94EC040B39
:1038100051EC100B53EC112BFCF740FE41EC100B5C
:1038200000F09AFC53EC1D2B51EC100BFCF7C4FD7F
:1038300041EC100B40A084ED3C0B53EC102B42E00C
:1038400094ED000B53EC1B2B51EC100BFCF7BEFE60
:103850003BD294ED020B53EC1B2B51EC100BFCF7FD
:103860009DFE32D2012204213046FDF7DBFD6420AB
:10387000FDF7D0FC002204213046FDF7D3FD642083
:10388000FDF7C8FC94ED020B51EC100B81F00041E8
:1038900041EC100B94ED001B53EC102B51EC110B71
:1038A000FCF7FCFD41EC100B00F056FC53EC1D2B1B
:1038B00051EC100BFCF780FD41EC100B22A084EDC5
:1038C0003C0B53EC102B00F0FBFB94ED000B22A003
:1038D00053EC102B00F0F4FB94ED020B21A053EC01
:1038E000102B00F0EDFB94ED040B21A053EC102BFA
:1038F00000F0E6FB94ED060B20A053EC102B43E008
:1039000000000000000010400000000000E06F40D8
:10391000CEDEBDE20A000000B1B1C6ABB6AB252ECB
:10392000326C660A00000000B1B1C6ABCEF7252E9E
:10393000326C660A00000000C4CFC6ABCEF7252E5D
:10394000326C660A00000000C4CFC6ABB6AB252EB1
:10395000326C660A00000000783A252E326C660D43
:103960000A000000793A252E326C660D0A0000002C
:103970007232313A252E326C660D0A007233313ABA
:10398000252E326C660D0A0000F09AFB94ED040BB4
:103990009FED118B51EC100B53EC182BFCF77EFDB7
:1039A00041EC100B0EA053EC102B00F089FB94EDB2
:1039B000060B53EC182B51EC100BFCF76FFD0DB000
:1039C00041EC100BBDEC108B53EC102B07A0BDE8A5
:1039D000F04F00F075BB0000C3F5285C8FC2D53FE7
:1039E0007432313A252E326C660D0A007433313A46
:1039F000252E326C660D0A009FED1D0B80ED100B1D
:103A00009FED1D0B80ED060B80ED040B80ED080B88
:103A100080ED0A0B80ED120B80ED140B80ED160B80
:103A200080ED180B80ED1A0B80ED1C0B80ED0C0B5C
:103A300080ED0E0B80ED2A0B80ED2C0B80ED2E0B14
:103A400080ED300B80ED320B80ED340B80ED240BDC
:103A500080ED220B80ED280B80ED260B80ED360BE0
:103A600080ED380B80ED3A0B80ED3C0B7047000089
:103A70000000000000805640000000000000000030
:103A80000148FEF7F6BA000044020020F0B50268D3
:103A9000254D264E264FDFF89CC0274B4FF0804E19
:103AA000A84209D0704507D0B04205D0B84203D033
:103AB000604501D0984203D122F070044A68224345
:103AC000A8421BD0704519D0B04217D0B84215D0CB
:103AD000604513D0984211D0184CA0420ED0184C1B
:103AE000A0420BD0174CA04208D0174CA04205D0E2
:103AF000164CA04202D0164CA04203D122F44074CE
:103B0000CA6822434C6922F08002224302608A681C
:103B1000C2620A688262A84201D0984201D1096952
:103B2000016301214161F0BD00000140000400403B
:103B300000080040000C004000040140004001402B
:103B4000004401400048014000180040001C0040B3
:103B50000020004010B501F01F010123046A8B40D2
:103B60009C430462036A8A401343036210BD10B58C
:103B7000846842EA032224F47F440A432243826099
:103B800010BD826822F070020A4342F00701816092
:103B900070470000F0B5026A22F001020262026A78
:103BA00043688469114E24F073050C68104F2C4350
:103BB00022F002058A682A43B04201D0B84205D1FA
:103BC00022F00805CA682A4322F00402B04201D05C
:103BD000B84205D14D6923F440731D438B692B43D3
:103BE00043608461496841630262F0BD00000140A6
:103BF00000040140F0B5026A22F010020262026A7B
:103C0000436884690D6824F4E64444EA05248D6819
:103C100022F0200242EA05120F4D104EA84201D0B8
:103C2000B04206D1CF6822F0800242EA071222F0A9
:103C30004002A84201D0B04207D14D6923F440634D
:103C400043EA85038D6943EA8503436084614968DB
:103C500081630262F0BD00000000014000040140E9
:103C6000F0B5026A22F480720262026A4368C46993
:103C700022F4007224F073050C68124E2C438D68F8
:103C800042EA05220E4DA84201D0B04206D1CF68CB
:103C900022F4006242EA072222F48062A84201D0A4
:103CA000B04207D14D6923F4405343EA05138D69AF
:103CB00043EA05134360C4614968C1630262F0BD11
:103CC000000001400004014030B5026A22F4805235
:103CD0000262036A4268C4690D6824F4E64444EA57
:103CE00005248D6823F4005343EA0533084DA842A8
:103CF00002D0084DA84204D14D6922F4804242EA24
:103D000085124260C46149680164036230BD0000ED
:103D1000000001400004014010B5046A036A23F06A
:103D200001030362836923F0F00343EA021324F0E2
:103D30000A020A438361026210BD10B5036A23F0D0
:103D4000100303628469036A24F4704444EA023273
:103D500023F0A00343EA01118261016210BD10B596
:103D6000806B0021C185C184FEF7AEFB10BD0168E8
:103D70000C3151E8002F22F4907241E80023002B0F
:103D8000F5D10168143151E8002F22F0010241E819
:103D90000023002BF5D1016B012909D101680C31F9
:103DA00051E8002F22F0100241E80023002BF5D14A
:103DB000202180F83E1000210163704708B590F87B
:103DC0003E10222901D0022008BD81684FF48053A3
:103DD000994201D1026922B1826A99421BD049B14C
:103DE0000AE00268816A5268C2F308020A80816AA6
:103DF000891C08E0016971B10168496801F07F011F
:103E00001170816A491C8162C18D491E0904090C27
:103E1000C18503D019E001684968F1E70168CA6803
:103E200022F02002CA600168CA6822F48072CA6067
:103E300001684A6922F001024A61202180F83E109F
:103E4000016B012903D0FEF7E5FC002008BD00212D
:103E5000016301680C3151E8002F22F0100241E8A3
:103E60000023002BF5D101680A68D20602D50A6842
:103E700049680091818DFEF726FBE6E770B50446A0
:103E800000680169E26821F4405111430161A168B1
:103E90002069E26901436069104301432068C268F8
:103EA00049F20C639A430A43C26020684169A269DF
:103EB00021F440711143416131492068884202D0A8
:103EC0003049884202D1FDF78DFD01E0FDF77AFD12
:103ED000E2690023192164253226B2F5004F626899
:103EE00028D0A0FB0101930F9200FCF769F901466D
:103EF000B0FBF5F06FF01802504301EB800006EBC9
:103F00000010B0FBF5F000F0F002B1FBF5F002EBB1
:103F10000012B1FBF5F06FF01803584301EB80007D
:103F200006EB0010B0FBF5F000F00F002168104424
:103F3000886070BDA0FB010192185B41FCF740F95D
:103F40000146B0FBF5F00201B1FBF5F06FF018038C
:103F5000584301EB800006EBC000B0FBF5F000F029
:103F6000F80002EB4002B1FBF5F0584301EB800092
:103F700006EBC000B0FBF5F000F00700D6E700004C
:103F800000100140001401402DE9F0411E46174683
:103F900088460446069D26E0681C24D025B1FDF71E
:103FA00047FA801BA8421ED920680C3050E8001F39
:103FB00021F4D07140E80012002AF5D120681430B5
:103FC00050E8001F21F0010140E80012002AF5D15D
:103FD000202084F83D0084F83E00002084F83C0056
:103FE0000320BDE8F0812068016838EA010004D0B0
:103FF0000020B842D0D00020F3E70120F9E700000C
:104000000148FEF763BA0000D4020020FEE710B5B5
:10401000AE20FEF7ABFF0020FEF7A8FF1020FEF752
:10402000A5FF4020FEF7A2FF8120FEF79FFFCF20D3
:10403000FEF79CFFA120FEF799FFC820FEF796FF30
:10404000A620FEF793FFA820FEF790FF3F20FEF783
:104050008DFFD320FEF78AFF0020FEF787FFD520D3
:10406000FEF784FF8020FEF781FFD920FEF77EFF58
:10407000F120FEF77BFFDA20FEF778FF1220FEF733
:1040800075FFDB20FEF772FF4020FEF76FFF202058
:10409000FEF76CFF0220FEF769FF8D20FEF766FF3A
:1040A0001420FEF763FFA420FEF760FFA620FEF7B2
:1040B0005DFFFEF7BDFEBDE81040AF20FEF756BF26
:1040C0000FB4054B10B503A9044A029801F080FB18
:1040D00010BC5DF814FB0000215F000838000020D0
:1040E0000FB4084B10B504A902AA039801F070FBA5
:1040F000044602A9002001F002FF204610BC5DF832
:1041000014FB0000FF5E000803B401984100009812
:1041100050EAC12018BF04204A0D18BF40F001002A
:1041200040F2FF72B2EB515F08BF40F0020001287D
:1041300008BF052002B070470907090E002804DBFC
:1041400000F1E02080F80014704700F00F0000F14B
:10415000E02080F8141D704710B5B94A2DED020B10
:104160002DED0C8B82B00F9921F000409FEDB6CB66
:1041700090422CDBA0F140530E9AA3F17F631A43C7
:104180000FD0B349884202DC16D10E98A0B19DED44
:104190000E0B02B0BDEC0C8B02B0BDE8104001F07C
:1041A000FBB90029C1BF9FEDAC0B02B0BDEC0C8B7D
:1041B00002B0C8BF10BD16E0012001F041FA02B004
:1041C000BDEC0C8B02B0BDE8104001F0F9B9A44A77
:1041D0009FEDA59B9FEDA6AB90425EDAA6499FEDB1
:1041E000A8CB814208DBB0EE4C0AF0EE6C0A02B0BC
:1041F000BDEC0C8B02B010BD9DED0E0B53EC102BE3
:1042000051EC100BFCF7D8F841EC180B9E48062136
:10421000B0EE480AF0EE680A784401F026F953EC53
:10422000182B51EC100BFCF7C7F841EC1B0B97480F
:10423000B0EE480AF0EE680A0421784401F015F95E
:1042400053EC182B51EC100BFCF7B6F853EC192B70
:10425000FCF70BF841EC100B51EC1B0B53EC102B43
:10426000FCF71CF941EC100B53EC102B9DED0E0BE1
:1042700051EC100BFCF7A0F853EC1A2BFCF799F853
:104280009DED0E1B53EC112BFCF793F853EC1C2BFC
:10429000FCF78FF841EC100BA9E79FED7D8B9FEDAC
:1042A0007EBB9DED0E0B002953EC192B51EC100B2E
:1042B00052DAFBF7DAFF53EC182BFCF77DF841ECF0
:1042C000180B77480621B0EE480AF0EE680A7844E9
:1042D00001F0CBF853EC182B51EC100BFCF76CF8F9
:1042E00041EC1D0B6F48B0EE480AF0EE680A04215D
:1042F000784401F0BAF853EC182B51EC100BFCF792
:104300005BF853EC192BFBF7B0FF41EC190B51ECA8
:10431000180B01F017FF41EC180B53EC192B51EC63
:104320001D0BFCF7BBF853EC182BFCF745F853ECCE
:104330001A2BFCF73BF841EC100B51EC180B53EC2B
:10434000102BFBF792FF53EC1B2BFCF735F853ECCB
:104350001C2BFCF72EF86DE0FCF72BF853EC182B18
:10436000FCF72AF841EC180B01F0ECFE41EC1A0BBB
:1043700000208DED00AB00909DED000B51EC1A0B71
:1043800053EC102BFBF771FF9DED000B41EC1C0B68
:1043900053EC102B51EC100BFCF70EF853EC182BD0
:1043A000FCF707F853EC1C2BFCF778F841EC1C0BDE
:1043B0003D48B0EE480AF0EE680A0621784401F064
:1043C00054F853EC182B51EC100BFBF7F5FF41ECB4
:1043D0001D0B3648B0EE480AF0EE680A0421784416
:1043E00001F043F853EC182B51EC100BFBF7E4FFF2
:1043F00053EC192BFBF739FF41EC100B51EC1D0B63
:1044000053EC102BFCF74AF853EC1A2BFBF7D4FFB4
:1044100053EC1C2BFBF729FF41EC100B53EC102B3A
:104420009DED000B51EC100BFBF71FFF53EC1B2B0A
:10443000FBF7C2FF41EC100BD9E6000000000000C2
:104440000000F03F00000000182D4454FB210940FB
:104450000000F07F000000000000000000000000ED
:104460000000E03F00000000000000000000F03FFE
:10447000075C143326A6913C0000603C000000005D
:10448000182D4454FB21F93FD4270000E2270000F7
:10449000000000000000E03F0000000000000040BD
:1044A0001E2700002C270000302600003E260000BA
:1044B00070B59B482DED020B2DED068B079D25F069
:1044C0000044A04218DC9748844202DC0AD10698D6
:1044D00040B19DED060BBDEC068B02B0BDE870400F
:1044E00001F05AB8002DCCBF9FED8F0B9FED900BC4
:1044F000BDEC068B02B070BD8F48A04215DD8F4821
:10450000A042D8BF4FF0FF3458DD9DED060B51ECB3
:10451000100BFFF7F9FD042808BF01F071F89DEDBD
:10452000060BBDEC068B02B070BD9DED060B51EC89
:10453000100B01F0E9FCCDE9060181489FED828B6B
:10454000A0423CDD8248A0421FDD00249FED82ABEB
:104550009DED060B53EC1A2B51EC100BFBF785FE6F
:104560009DED060B41EC190B53EC1A2B51EC100B83
:10457000FBF722FF53EC182BFBF718FF53EC192B1A
:10458000FBF78CFFCDE9060149E09DED060B012408
:1045900053EC182B51EC100BFBF767FE9DED060B4F
:1045A00041EC190B53EC182B51EC100BFBF7FEFEF2
:1045B00053EC192BFBF772FFCDE906012FE0684899
:1045C000A0421FDD02249FED689B9DED060B53EC7E
:1045D000192B51EC100BFBF7EFFE53EC182BFBF7EC
:1045E00044FE9DED060B41EC180B53EC192B51ECDE
:1045F000100BFBF7DBFE53EC182BFBF74FFFCDE95D
:1046000006010CE09DED060B032453EC102B9FEDEF
:10461000580B51EC100BFBF741FFCDE906019DED66
:10462000060B53EC102B51EC100BFBF7C5FE41ECC5
:10463000180B53EC182BFBF7BFFE41EC190B4E483F
:104640000621B0EE490AF0EE690A784400F00DFF49
:1046500053EC182B51EC100BFBF7AEFE41EC180B92
:104660004648B0EE490AF0EE690A0521784400F0A8
:10467000FCFE53EC192B51EC100BFBF79DFE41ECAB
:10468000100B51EC180B53EC102B002C0EDAFBF72F
:10469000ECFD9DED061B53EC112BFBF78DFE9DED04
:1046A000061B53EC112BFBF784FE35E0FBF7DDFD19
:1046B0009DED061B53EC112BFBF77EFE41EC100B1E
:1046C0002F48784400EBC40090ED001B51EC100B18
:1046D00053EC112BFBF76AFE9DED061B53EC112BDF
:1046E000FBF764FE41EC100B2648784400EBC40055
:1046F00090ED001B51EC100B53EC112BFBF759FE06
:1047000041EC100B002DA2BFBDEC068B02B070BDBA
:1047100051EC100B81F0004141EC100B01E700005F
:10472000000010440000F07F182D4454FB21F93F95
:10473000182D4454FB21F9BF0000DC3F0000203E4F
:104740000000F33F00000000000000000000F03F08
:104750000000E63F000000000000000000000040F4
:104760000080034000000000000000000000F83F4F
:10477000000000000000F0BF5A24000010240000D8
:104780009A230000522300002DED020B019820F027
:10479000004001909DED000B02B07047000000004A
:1047A0002DE9F04D2DED040B2DED0E8B96B0DDE9CE
:1047B0002550279CDDF890A025F0004624F0004805
:1047C000BAF1000F14BF0121002101EB4502FC49A1
:1047D00053184A1093422AD3002814BF0123002300
:1047E00003EB44030B44F7498B4220D358EA000102
:1047F0009FEDF59B76D0DFF8D8B35D4503D1BAF1D4
:10480000000F05D188E0BAF1000F08BF002100D0E9
:10481000012101EB450111F5001F08D8002814BF44
:104820000121002101EB440111F5001F0BD99DED81
:10483000261B9DED240B16B0BDEC0E8B04B0BDE81D
:10484000F04D00F0B3BE0027002DBCBFE149884504
:1048500021DAE1498845A8BF02271CDAC3451ADCE2
:10486000DE4901EB2851142908DDC1F1340220FA98
:1048700002F101FA02F282420DD108E058B9C1F109
:10488000140228FA02F101FA02F2424503D101F0C2
:104890000101C1F1020756EA0A0124D1002C22DAF3
:1048A000002D18BF022F01D0012F0AD0022000F0E6
:1048B000C7FE16B0BDEC0E8B04B0BDE8F04D00F0A5
:1048C00053BE022000F0BCFE00F04EFE51EC100B77
:1048D00081F0004141EC100B16B0BDEC0E8B04B022
:1048E000BDE8F08D18E09FEDBEAB9FEDBF8B0028BB
:1048F00071D1B848804522D105F1804010F5801073
:1049000008BFBAF1000F07D0B3450ADC002CA8BFDE
:104910009DED260BE0DA0DE0B0EE490AF0EE690AF3
:10492000DAE7002C06DA9DED260B51EC100B81F036
:1049300000416FE0AE48784490ED000BCCE7D845DD
:104940004DD1002C48DA2EB186423AD1BAF1000F8F
:1049500042D126E0BAF1000F13D0022000F070FE21
:1049600000F03EFE8DED020B9DED240B8DED000B56
:1049700010EE900A039961F31E0003909DED020B67
:10498000AAE78DED02AB9DED240B1AEE901A10EE06
:10499000900A8DED000B61F31E0003909DED020B5C
:1049A0009AE78DED028B9DED240B18EE901A10EE18
:1049B000900A8DED000B61F31E0003909DED020B3C
:1049C0008AE709DA9DED240B51EC190B53EC102BFF
:1049D000FBF764FD1EE020E09DED240B7CE78642A2
:1049E0001BDAB4F1804F0DD0A4F10050B0F1FF50AC
:1049F00013D1002D11DB9DED240B51EC100B01F0B8
:104A0000A1FB07E09DED240B53EC102B51EC100B98
:104A100000F0C2BC41EC100B5EE79DED240B51ECA5
:104A2000100B01F071FABAF1000FCDE90E0142D17D
:104A30009FED710B46B3A6F1E040B0F17F600CD062
:104A40005E4538D1002D00DAA7B3022F0CBF01203C
:104A50004FF0FF30FBF791FDDCE7002D01DD002C6E
:104A60000DDA002D01DD002C1FDB002D16DA002CE5
:104A700014DB012F08BF9FED620B3FF42DAFB0EEAA
:104A80004A0AF0EE6A0A27E7022F18BF002D0CD061
:104A9000012F0AD1002DFFF61FAF06E0002DB8BF91
:104AA000002C08DA012F3FF417AFB0EE480AF0EE01
:104AB000680A11E71BE0012000EBE57050EA0701EE
:104AC00015D0791EB0EE498AF0EE698A084308BF16
:104AD0009FED4D8B4E480025804570DD4D494E4879
:104AE000884514DDB0420DDB002C19DB2FE00120DE
:104AF00000F0A6FD16B0BDEC0E8B04B0BDE8F04D85
:104B000000F05EBDB34502DC002C09DC1FE08642EC
:104B100002DA002C1BDA03E05E452BDD002C16DDEB
:104B2000022000F08DFD00F05BFD8DED020B53ECDB
:104B30001A2B51EC180BFBF73FFCCDE90001039950
:104B4000019861F31E0003909DED020BC4E6022064
:104B500000F076FD00F054FD10EE901A18EE900A69
:104B60008DED020B8DED008B61F31E0003909DED2A
:104B7000020BB1E69DED0E0B53EC192B51EC100B13
:104B8000FBF714FC9FED260BCDE9080153EC102B2D
:104B90009DED080B51EC100BFBF70EFC9FED221B5B
:104BA00053EC112BFBF705FC9DED081B53EC112B6F
:104BB000FBF702FC9FED1E1B53EC112B3CE08CE03D
:104BC000FFFF1F00FFFF0F00000000000000F03F8C
:104BD0000000F03F0000F07F0000404301FCFFFFB9
:104BE000000000000000F07F000000000000000056
:104BF00026220000000000000000000000000080ED
:104C0000000000000000F0FF000000000000F0BF06
:104C10000000E0410000F043FFFFEF3F0000000014
:104C2000000000000000D03F555555555555D53F63
:104C3000000000000000E03FFBF7BBFB9DED080B10
:104C400041EC1A0B53EC102B51EC100BFBF7B4FB9F
:104C500053EC1A2BFBF7B0FB41EC1A0B9FEDFE0B4C
:104C600053EC102B9DED080B51EC100BFBF7A4FB44
:104C700041EC1B0B9FEDFA0B51EC1A0B53EC102B74
:104C8000FBF79AFB41EC1A0B9FEDF70B53EC102B43
:104C90009DED080B51EC100BFBF78EFB53EC1A2B20
:104CA000FBF784FB41EC1A0B51EC1B0B53EC1A2B5A
:104CB000FBF7DBFA0690CDE906519DED060B53ECB0
:104CC0001B2B51EC100BFBF771FB53EC1A2BFBF772
:104CD00070FB41EC100B00F0A1B90020B6F5801F6D
:104CE0000EDA9FEDE30B53EC102B9DED0E0B51EC08
:104CF000100BFBF761FBCDE90E016FF034000E469F
:104D000000EB2650A0F2FF37C6F31300DA4940F05B
:104D10007F6646F040568842D8BF002408DDD74958
:104D20008142C8BF012403DC0024A6F580167F1C45
:104D3000D348784400EBC4000F9690ED00CB9DED76
:104D40000E0B53EC1C2B51EC100BFBF72FFB9DEDC6
:104D50000E0B41EC1B0B53EC1C2B51EC100BFBF717
:104D600084FA41EC100B51EC190B53EC102BFBF7B0
:104D700095FB41EC1D0B51EC1B0B53EC1D2BFBF772
:104D80001BFB41EC1A0BBF488DED10AB784410951E
:104D900090ED000B4FF0005040EA660000EB8440BD
:104DA0008DED080B00F5002009909DED080B53ECEC
:104DB0001C2B51EC100BFBF7F9FA9DED0E1B53EC7D
:104DC000112BFBF7F6FA41EC100B53EC102B9DED79
:104DD000100B51EC100BFBF7EFFA9DED080B41ECBB
:104DE0001C0B53EC102B9DED100B51EC100BFBF733
:104DF000E3FA53EC1B2BFBF7DCFA53EC1C2BFBF711
:104E0000D5FA53EC1D2BFBF7D7FA41EC1C0B53ECF6
:104E10001A2B51EC1A0BFBF7CFFA41EC1B0B9A48FB
:104E20000621B0EE4B0AF0EE6B0A784400F01DFB51
:104E3000B0EE401AF0EE601AB0EE41DAF0EE61DA50
:104E400053EC1B2B51EC1B0BFBF7B6FA53EC1D2B51
:104E5000FBF7B2FA9DED100B41EC1B0B53EC1A2B38
:104E600051EC100BFBF701FA53EC1C2BFBF7A4FAE7
:104E700053EC1B2BFBF7F9F99DED100B41EC1B0BD1
:104E800053EC102B51EC100BFBF796FA41EC1D0B79
:104E90009FED7FEB53EC1E2BFBF7E7F953EC1B2B3D
:104EA000FBF7E3F90890CDE908519DED080B53ECB1
:104EB0001E2B51EC100BFBF779FA53EC1D2BFBF773
:104EC00075FA53EC1B2BFBF774FA9DED080B41ECC4
:104ED0001D0B53EC102B9DED100B51EC100BFBF741
:104EE0006BFA41EC1B0B53EC1A2B51EC1D0BFBF72F
:104EF00063FA9DED080B41EC1A0B53EC102B51ECAF
:104F00001C0BFBF759FA53EC1A2BFBF7AEF941ECEB
:104F10001A0B51EC1B0B53EC1A2BFBF7A6F90C9058
:104F2000CDE90C519DED0C0B53EC1B2B51EC100BF0
:104F3000FBF73CFA53EC1A2BFBF73BFA41EC1B0B4B
:104F40009FED550B53EC102B9DED0C0B51EC100B02
:104F5000FBF732FA41EC1A0B9FED510B51EC1B0B96
:104F600053EC102BFBF728FA41EC1B0B9FED4E0B7B
:104F700053EC102B9DED0C0B51EC100BFBF71CFAB6
:104F800053EC1B2BFBF771F941EC100B48487844AC
:104F900000EBC40090ED001B51EC100B53EC112BF7
:104FA000FBF763F941EC1B0B3846FBF7E6FACDE95A
:104FB000080153EC1B2B51EC1A0BFBF756F941EC93
:104FC000100B3C48784400EBC40090ED00CB51EC52
:104FD000100B53EC1C2BFBF748F99DED081B53EC11
:104FE000112BFBF742F90690CDE906519DED080B18
:104FF00053EC102B9DED060B51EC100BFBF7D6F983
:1050000053EC1C2BFBF7D2F953EC1A2BFBF7CEF920
:1050100053EC1B2BFBF7CDF941EC100B9DED261B40
:1050200053EC102B8DED001B00959DED260B51ECE4
:10503000100BFBF7C1F99DED000B41EC1A0B53EC83
:10504000102B9DED260B51EC100BFBF7AFF99DEDEE
:10505000061B53EC112B2FE0000000604715F73FB3
:10506000FE822B654715F73F44DF5DF80BAE543EDB
:1050700000000000000040438E9803007AB60B0049
:10508000A21D0000D01D0000DA1C0000000000007E
:105090000000000000000840000000E009C7EE3FEB
:1050A000FD033ADC09C7EE3FF5015B14E02F3EBE7D
:1050B000661B0000201B0000FBF77EF953EC1A2B47
:1050C000FBF7D3F89DED060B41EC1A0B53EC102BBC
:1050D0009DED000B51EC100BFBF76EF9CDE90C01C7
:1050E0009DED0C0B51EC1A0B53EC102BFBF7BDF89C
:1050F000CDE902010C46AA498C422FDB611A084314
:1051000018D19DED0C0B53EC102B9DED020B51ECC7
:10511000100BFBF74BF941EC1B0B9FEDA30B51EC74
:105120001A0B53EC102BFBF7A0F853EC1B2BFBF7DF
:105130004DFA2DD2022000F083FA00F051FA10EE61
:10514000901A18EE900A8DED020B8DED008B61F335
:105150001E0003909DED020BFFF7BEBB944A24F0A6
:105160000041914214D39349214408437FF4EFACAA
:105170009DED0C0B53EC102B9DED020B51EC100B25
:10518000FBF714F953EC1A2BFBF720FA7FF6DFAC90
:1051900024F000408849894A002601EB20518242D0
:1051A0002BDA481C4FF4801121FA00F02044844A85
:1051B000C0F30A517A44A1F2FF3192ED000B814A0B
:1051C0008DED080BCA4020EA0202C0F3130040F440
:1051D0008010C1F1140120FA01F60992002CB8BF29
:1051E00076429DED080B53EC102B9DED0C0B51EC12
:1051F000100BFBF7DBF8CDE90C019DED0C0B51EC2E
:105200001A0B53EC102BFBF730F89FED6F0B089047
:10521000CDE9085153EC102B9DED080B51EC100B10
:10522000FBF7CAF841EC1B0B9FED690B53EC102BFD
:105230009DED080B51EC100BFBF7BEF89DED0C0B30
:1052400041EC1C0B53EC102B9DED080B51EC100B9B
:10525000FBF7ACF853EC1A2BFBF7ABF89FED5E1B9A
:1052600053EC112BFBF7A8F853EC1C2BFAF7FDFFBE
:1052700041EC1A0B51EC1B0B53EC1A2BFAF7F5FF10
:10528000CDE902019DED020B53EC1B2B51EC100BF1
:10529000FBF78CF853EC1A2BFBF78BF89DED020B08
:1052A00041EC1A0B53EC102B51EC100BFBF784F86C
:1052B000CDE908014A489DED080B0521784400F02E
:1052C000D4F89DED081B51EC100B53EC112BFBF7A0
:1052D00073F89DED021B53EC112BFBF76AF8CDE937
:1052E00006019DED020B53EC1A2B51EC100BFBF752
:1052F00063F853EC1A2BFAF7B8FF9FED3B0B41EC28
:105300001A0B53EC102B9DED060B51EC100BFBF719
:105310004DF89DED060B41EC1B0B53EC102B9DED56
:10532000020B51EC100BFBF747F853EC1B2BFBF770
:10533000B5F853EC1A2BFBF739F89DED021B53EC33
:10534000112BFBF733F853EC192BFBF732F8CDE9AF
:10535000020101EB065001150029C8BF039015DCBE
:105360009DED020B324651EC100BFBF7EBF9FEF70B
:10537000CBFE042808BF00F043F932469DED020B36
:1053800051EC100BFBF7DEF9CDE902019DED020BAC
:1053900051EC180B53EC102BFBF70EF8FFF73ABB50
:1053A0000000904000000000FE822B654715973CEE
:1053B00000CC904000346F3F01FCFFFF0000E03F55
:1053C000A8190000FFFF0F0000000000432EE63F79
:1053D000396CA80C615C20BEEF39FAFE422EE63F24
:1053E00078180000000000000000000000000040ED
:1053F00000B52DED048BB0EE409AF0EE609A83B0CC
:1054000051EC190BFBF7B5F941EC180B18EE100A2B
:1054100018EE901A8DED008B002818BF012008436C
:1054200020F00040C0F17F6000F1E040C00F14D0D8
:1054300019EE101A19EE900A8DED009B002918BF85
:105440000121084320F00040C0F17F6000F1E040FE
:10545000C00F04BF012000F0F3F8B0EE480A03B01B
:10546000F0EE680ABDEC048B00BD70B504462DED6E
:10547000028B4D1E00EBC500B0EE408AF0EE608A54
:1054800090ED000B35F0060017D053EC182B51ECC3
:10549000100BFAF791FF41EC100B6D1E04EBC500E9
:1054A00090ED001B51EC100B53EC112BFAF7DDFEC5
:1054B00041EC100B35F00600E7D1022D36D0042D5B
:1054C0001CD0062D1CBFBDEC028B70BD53EC182BFD
:1054D00051EC100BFAF770FF94ED0A1B53EC112BF3
:1054E000FAF7C3FE53EC182BFAF766FF94ED081B8E
:1054F00053EC112BFAF7B9FE41EC100B53EC182BBF
:1055000051EC100BFAF758FF94ED061B53EC112BDE
:10551000FAF7ABFE53EC182BFAF74EFF94ED040BA1
:1055200053EC102BFAF7A1FE41EC100B53EC182BA7
:1055300051EC100BFAF740FF94ED021B53EC112BCA
:10554000FAF793FE53EC182BFAF736FF94ED001B95
:1055500053EC112BFAF789FEBDEC028B41EC100BDA
:1055600070BD0000000000009FED070B10B553EC6C
:10557000102B9FED070B51EC100BFAF78FFF41EC4E
:10558000100B10BD00000000000000000000000033
:10559000000000000000F03F10B553EC102B51EC60
:1055A000100BFAF762FE41EC100B10BD10B553EC76
:1055B000112B51EC100BFAF758FE41EC100B10BDFB
:1055C0009FED050B10B553EC102B51EC100BFAF7B7
:1055D00065FF41EC100B10BD000000000000000052
:1055E0009FED050B10B553EC102B51EC100BFAF797
:1055F000E3FE41EC100B10BD000000000000007045
:105600009FED050B10B553EC102B51EC100BFAF776
:10561000D3FE41EC100B10BD000000000000001094
:1056200002E008C8121F08C1002AFAD1704770476B
:10563000002001E001C1121F002AFBD170470000C9
:1056400001490860704700003C0000202DE9FF5F21
:1056500082B00021DDE90430020DDDF840B00343E3
:1056600018D044F61050A2F2FF324243151411989C
:1056700001281FD0A5EB0B00401C5FEA000A4FF089
:1056800000064E4FDFF83891B046504615D5CAF1A6
:10569000000413E0119801244AA3012801D16FEA04
:1056A0000B010298119AC0E90031C0E9024206B02C
:1056B000BDE8F09FCBF10000DFE704460021404A3F
:1056C000491842EB0450CDE9001012E0E00707D082
:1056D00032463B4640464946FAF76EFE80468946CA
:1056E00032463B4610461946FAF766FE06460F4616
:1056F0006410002CEAD1DDE90401DDE90023BAF1F0
:10570000000F06DAFAF758FE42464B46FAF754FE07
:1057100005E0FAF7C3FE42464B46FAF7BFFE0446E1
:105720000E460022284BFAF751FF03D84FF0FF3006
:10573000014607E00022254B20463146FAF795FD49
:10574000FBF768F8102409E0002C0ADB0A2200238A
:10575000FAF736FD039B30321A55641E50EA0102F7
:10576000F2D1641C039AC4F111031444119A012A62
:1057700003D0012208430DD10AE0084304D00020E1
:105780004FF0110B119072E7A3EB0B056D1E0DE0AE
:105790005B4504DD4FF0000205F1010504E003DA8A
:1057A0004FF00002A5F10105002AECD002981199F2
:1057B000C0E90231C0E9004579E70000000014406B
:1057C0000000F03F300000000000F0430000E03F28
:1057D0002DE9FF4F95B09B468946064600250FE20E
:1057E000252877D100242746F84A0121059400E0B6
:1057F000044316F8013F203B01FA03F01042F7D1B1
:1058000030782A2811D06FF02F033078A0F13002C1
:10581000092A16D8059A44F0020402EB820203EB2F
:1058200042021044761C0590EFE759F8042B0592CC
:10583000002A03DA504244F40054059044F0020474
:10584000761C30782E2816D116F8010F44F0040487
:105850002A280DD06FF02F023078A0F13003092BE9
:1058600009D807EB870302EB4303C718761CF3E75D
:1058700059F8047B761C30786C280FD006DC4C2855
:1058800017D068280DD06A2814D104E0742810D0ED
:105890007A280FD10DE044F400140AE044F4801497
:1058A00001E044F440147278824202D104F580147D
:1058B000761C761C307866280BD013DC582877D0FD
:1058C00009DC002875D04528F6D04628F4D04728B2
:1058D0001AD19DE118E0632835D0642879D0652875
:1058E00012D195E1702873D008DC6728F1D06928BF
:1058F0006FD06E280DD06F2806D1B5E073282CD05C
:10590000752875D0782874D05A46179990476D1C21
:1059100075E1C4F30250022809D003280DD0D9F84C
:10592000001004280DD00D6009F1040967E1D9F8D1
:105930000010EA17C1E90052F6E7D9F800100D800F
:10594000F2E70D70F0E719F8041B8DF80010002045
:105950008DF80100EA46012003E059F804AB4FF04E
:10596000FF3061074FF0000102D40DE008F10101A2
:105970008846B9420FDA8045F8DB1AF8081000298A
:10598000F4D108E008F1010188468142FADB1AF8F7
:1059900008100029F6D105985B46A0EB08072146C0
:1059A0003846179A00F094FA284400EB080507E0FF
:1059B0004DE029E10DE01AF8010B5A46179990477E
:1059C000B8F10108F7D25B4621463846179A13E131
:1059D00042E00A220092C4F302524FF0000A022A67
:1059E00008D059F804CB032A4FEAEC710AD00DE035
:1059F00029E02AE009F1070121F00702F2E802C1DB
:105A0000914609E00FFA8CFC4FEAEC71042A03D1AD
:105A10004FFA8CFC4FEAEC71002907DA0A460021A4
:105A2000DCF1000C61EB02012D2202E0220504D51D
:105A30002B228DF80420012203E0E20701D020226E
:105A4000F7E7904659E00A2102E010220DE010210C
:105A50004FF0000A00910BE010224FF0000A44F0D2
:105A600004040827009203E008224FF0000A009285
:105A7000C4F30252022A05D059F804CB0021032AAC
:105A800008D009E009F1070121F00702F2E802C19C
:105A9000914605E01FFA8CFC042A01D10CF0FF0CA2
:105AA0004FF00008220728D5702806D0009B83F00D
:105AB000100353EA0A0305D00EE040228DF80420BB
:105AC000012208E05CEA010206D030228DF80420B1
:105AD0008DF8050002229046009B83F0080353EAEC
